S00C0000617433322E73726563DE
S11300000C9472000C948F000C948F000C948F004D
S11300100C948F000C948F000C948F000C948F0020
S11300200C948F000C948F000C948F000C948F0010
S11300300C948F000C948F000C948F000C948F0000
S11300400C948F000C948F000C948F000C948F00F0
S11300500C948F006D0ACD0A0B0B200B2C0B380B64
S1130060400B07634236B79BD8A71A39685618AEB7
S1130070BAAB558C1D3CB7CC5763BD6DEDFD753ED9
S1130080F6177231BF000000803F08000000BE92E6
S11300902449123EABAAAA2ABECDCCCC4C3E0000C9
S11300A00080BEABAAAAAA3E00000000BF00000068
S11300B0803F0000000000084178D3BB4387D11380
S11300C03D190E3CC3BD4282AD2B3E68EC8276BE28
S11300D0D98FE1A93E4C80EFFFBE01C4FF7F3F00F2
S11300E00000000011241FBECFE5D8E0DEBFCDBF65
S11300F012E0A0E6B0E0EEECF4E202C005900D924E
S1130100AA32B107D9F722E0AAE2B2E001C01D92F7
S1130110A135B207E1F70E94120A0C9465120C94FF
S113012000008BBB84E088BB89EF90E00197F1F776
S113013000C0000018BA83ED90E30197F1F700C006
S11301400000089588E30E94910089EF90E00197F0
S1130150F1F700C0000081E00E94910089EF90E077
S11301600197F1F700C000008EE00E94910089EF32
S113017090E00197F1F700C0000008958BBB85E083
S113018088BB89EF90E00197F1F700C0000081E09F
S113019088BB81EE94E00197F1F700C00000089558
S11301A0EF92FF921F93CF93DF937C01162FC0E051
S11301B0D0E007C0F701EC0FFD1F80810E94BE0054
S11301C02196812F90E0C817D907A4F3DF91CF912E
S11301D01F91FF90EF90089590E0C097089581E0FB
S11301E00E949100089580E80E949100089580EC97
S11301F00E94910008958FEE82BB83EC99E00197F1
S1130200F1F700C00000809B30C0819B30C0829B0E
S113021030C08FED82BB83EC99E00197F1F700C009
S11302200000809B28C0819B28C0829B28C08FEB44
S113023082BB83EC99E00197F1F700C00000809B3A
S113024020C0819B20C0829B20C08FE782BB83ECAF
S113025099E00197F1F700C00000809B18C0819BD2
S113026018C0829918C083E2089581E3089582E357
S1130270089583E3089584E3089585E3089586E368
S1130280089587E3089588E3089589E308958AE249
S1130290089580E3089581E6089581E602C00E94EE
S11302A0FB008136E1F3089584B3846084BB089530
S11302B085B3846085BB85E08A95F1F785B38B7F30
S11302C085BB08958F929F92AF92BF92CF92DF9297
S11302D0EF92FF920F931F93CF93DF93D0E0C0E090
S11302E0B0E0A0E0F0E0F12C00E010E015C09B9934
S11302F025C02D2F3C2F4B2F5A2F6F2F7F2D802F52
S1130300912FA1E00E94110FD22FC32FB42FA52F3C
S1130310F62FF72E082F192F2D2F3C2F4B2F5A2F46
S11303206F2F7F2D802F912F2F3B3742494051054E
S11303306105710581059105D1F2C8F22D2F3C2F7D
S11303404B2F5A2F6F2F7F2D802F912F203C374218
S113035049405105610571058105910509F469C09C
S11303601FBC82E08EBD1DBC1CBCD0E0C0E0B0E070
S1130370A0E0F0E0F12C00E010E01AC09B9B2AC042
S11303808CB59DB581369A4E28F52D2F3C2F4B2FD9
S11303905A2F6F2F7F2D802F912FA1E00E94110FD4
S11303A0D22FC32FB42FA52FF62FF72E082F192FD6
S11303B02D2F3C2F4B2F5A2F6F2F7F2D802F912FB6
S11303C02F3B37424940510561057105810591056F
S11303D0A9F2A0F22D2F3C2F4B2F5A2F6F2F7F2DD8
S11303E0802F912F203C374249405105610571050A
S11303F08105910519F18CB49DB41EBC282D392DAD
S113040040E050E060E070E080E090E02036EAEE0A
S11304103E0741055105610571058105910509F006
S113042090F401E00E94F50E622F732F842F952F14
S11304300EC06FEF7FEF8FEF9FEF09C06EEF7FEF7E
S11304408FEF9FEF04C06EEF7FEF8FEF9FEFDF9191
S1130450CF911F910F91FF90EF90DF90CF90BF90BD
S1130460AF909F908F90089584B3806184BB08956A
S113047085B3806185BB85E08A95F1F785B38F7E6E
S113048085BB08958F929F92AF92BF92CF92DF92D5
S1130490EF92FF920F931F93CF93DF93D0E0C0E0CE
S11304A0B0E0A0E0F0E0F12C00E010E015C09D9970
S11304B025C02D2F3C2F4B2F5A2F6F2F7F2D802F90
S11304C0912FA1E00E94110FD22FC32FB42FA52F7B
S11304D0F62FF72E082F192F2D2F3C2F4B2F5A2F85
S11304E06F2F7F2D802F912F2F3B3742494051058D
S11304F06105710581059105D1F2C8F22D2F3C2FBC
S11305004B2F5A2F6F2F7F2D802F912F203C374256
S113051049405105610571058105910509F469C0DA
S11305201FBC82E08EBD1DBC1CBCD0E0C0E0B0E0AE
S1130530A0E0F0E0F12C00E010E01AC09D9B2AC07E
S11305408CB59DB581369A4E28F52D2F3C2F4B2F17
S11305505A2F6F2F7F2D802F912FA1E00E94110F12
S1130560D22FC32FB42FA52FF62FF72E082F192F14
S11305702D2F3C2F4B2F5A2F6F2F7F2D802F912FF4
S11305802F3B3742494051056105710581059105AD
S1130590A9F2A0F22D2F3C2F4B2F5A2F6F2F7F2D16
S11305A0802F912F203C3742494051056105710548
S11305B08105910519F18CB49DB41EBC282D392DEB
S11305C040E050E060E070E080E090E02036EAEE49
S11305D03E0741055105610571058105910509F045
S11305E090F401E00E94F50E622F732F842F952F53
S11305F00EC06FEF7FEF8FEF9FEF09C06EEF7FEFBD
S11306008FEF9FEF04C06EEF7FEF8FEF9FEFDF91CF
S1130610CF911F910F91FF90EF90DF90CF90BF90FB
S1130620AF909F908F90089581B3886081BB82B30F
S1130630877F82BB87E893E10197F1F700C0000050
S113064082B3886082BB089581B3877F81BB83991D
S1130650FECF839BFECF8399FECF089520E030E048
S113066019C0839BFECF8AE08A95F1F7839B09C06A
S113067080912E0290E0880F991F816080932E0252
S113068005C080912E02880F80932E028399FECF9D
S11306902F5F3F4F2830310524F380912E020895B7
S11306A087B3806B87BB87B38F7B87BB88B380613D
S11306B088BB81E58DB98EB18E7F8EB908958FB9CF
S11306C0779BFECF8FB1089511B880E280B9089569
S11306D094EA96BF06B607FEFDCF91B1987F983095
S11306E071F483B984E886BF06B607FEFDCF81B1F5
S11306F0887F883131F0803231F482E0089580E0DF
S1130700089581E0089583E0089594EA96BF06B6BB
S113071007FEFDCF91B1987F903171F483B984E8DD
S113072086BF06B607FEFDCF81B1887F803431F0E5
S1130730803231F482E0089580E0089581E00895E4
S113074083E0089584E986BF06B604FCFDCF0895CE
S113075083B984E886BF06B607FEFDCF81B1887FE2
S1130760883221F0803321F481E0089580E00895F7
S113077082E0089584EC86BF06B607FEFDCF83B100
S113078090E0089584E886BF06B607FEFDCF83B1E6
S113079090E0089585FF02C081E0089580E0089507
S11307A0CF93C82F80ED0E9468038C2F0E94A8036A
S11307B081ED0E9485030E94BA03909338028093CE
S11307C037020E94BA0390933C0280933B020E943A
S11307D0C2039093400280933F020E94A203CF91F0
S11307E00895CF93C82F80ED0E9468038C2F0E9438
S11307F0A80381ED0E9485030E94BA0390934B02E3
S113080080934A020E94BA0390934E0280934D0251
S11308100E94BA0390933602809335020E94C20369
S113082090934702809346020E94A203CF910895B9
S11308304F925F926F927F928F929F92AF92BF92EC
S1130840CF92DF92EF92FF920F931F93CF93DF9398
S1130850CDB7DEB764970FB6F894DEBF0FBECDBF39
S113086000E010E00E944D01809343020E94BE000C
S1130870809143028332C9F00E94EC00F801EE0F2C
S1130880FF1F21E030E02C0F3D1FE20FF31F918387
S113089080830F5F1F4F3FE58AEE90E03150804028
S11308A09040E1F700C00000DDCF580121E0A21A1A
S11308B0B108E12CF12C812C912C3BC0F701EE0FF7
S11308C0FF1F81E090E08C0F9D1FE80FF91FC0808F
S11308D0D180B5010B2C000C880B990B0E945B0C8A
S11308E09B01AC0160E070E080E291E40E94540D51
S11308F02B013C01B601DD0C880B990B0E945B0CAB
S1130900A30192010E94E70C2B013C01B401990C54
S1130910880B990B0E945B0CA30192010E94450B6A
S11309200E94230C4B0191E0A91AB1082FEFE21A9F
S1130930F20AE016F10614F281E00E949100C4016B
S113094064960FB6F894DEBF0FBECDBFDF91CF9192
S11309501F910F91FF90EF90DF90CF90BF90AF90D9
S11309609F908F907F906F905F904F9008950E941A
S1130970EF000E94F3006BE08AE690E00E94D00052
S11309800E94F7006BE087E790E00E94D0000E948D
S11309904D01809343020E94180408950E94EF00C1
S11309A00E94F30060E183E890E00E94D0000E947E
S11309B0F7006BE087E790E00E94D0000E944D01B1
S11309C0809343020E94180408950E94EF000E943D
S11309D0F30060E184E990E00E94D0000E94F700F7
S11309E069E083EA90E00E94D0000E944D01809368
S11309F043020E94180408950E94EF000E94F3002D
S1130A0060E184E990E00E94D0000E94F70069E070
S1130A108DEA90E00E94D0000E944D018093430231
S1130A200E94180408950E94EF000E94F3006FE0F2
S1130A3087EB90E00E94D0000E94F70067E087EC0B
S1130A4090E00E94D0000E944D01809343020E94D6
S1130A50180408950E94EF000E94F3006FE087EBF2
S1130A6090E00E94D0000E94F70067E08FEC90E0D5
S1130A700E94D0000E944D01809343020E941804FA
S1130A800895EF92FF920F931F93CF93DF93CDB707
S1130A90DEB72A970FB6F894DEBF0FBECDBF0E9413
S1130AA0EF000E94F3006BE08AEE90E00E94D00019
S1130AB00E94F70067E086EF90E00E94D0000E9459
S1130AC04D01809343020E941804082F192F9F930D
S1130AD08F938EEF90E09F938F93CE0101967C01CC
S1130AE09F938F930E94560F81E00E9491006FE0C4
S1130AF081E091E00E94D00080EC0E9491006AE0C5
S1130B00C7010E94D0009FE32DE083E09150204074
S1130B108040E1F700C000000F900F900F900F90FD
S1130B200F900F90802F912F2A960FB6F894DEBF66
S1130B300FBECDBFDF91CF911F910F91FF90EF902A
S1130B400895CF93DF9300D000D0CDB7DEB787EA06
S1130B5091E60197F1F700C000000E94EF000E94A7
S1130B6054010E9458010E9462016F3F2FEF7207E7
S1130B7089F40E94EF0062E080E191E00E94D000DD
S1130B808FE39DE023E0815090402040E1F700C0D6
S1130B90000079C080E090E00E94590C26E933E41B
S1130BA04BE05DE30E94E70C20E030E040E05FE3CF
S1130BB00E94E70C9B01AC0160E070E088E492E4E1
S1130BC00E94440B0E94230C70933A0260933902F2
S1130BD020913102309132022617370711F00E941A
S1130BE0EF000E94F3006BE083E191E00E94D000EB
S1130BF04AE0BE016F5F7F4F8091390290913A02C3
S1130C000E94310F63E0CE0101960E94D00062E0A1
S1130C108EE191E00E94D0008091390290913A02D5
S1130C2090933202809331028BE49DE10197F1F7B6
S1130C3000C000008091390290913A028A309105F7
S1130C40A4F40E94F7006DE081E291E00E94D000DC
S1130C509FE926E881E0915020408040E1F700C000
S1130C60000082E00E945F030EC00A9744F00E94D5
S1130C70F7006CE08EE291E00E94D00004C00E9474
S1130C804D01809343020F900F900F900F90DF91CE
S1130C90CF910895CF93DF9300D000D0CDB7DEB7C6
S1130CA087EA91E60197F1F700C000000E94EF0087
S1130CB00E9434020E9438020E9442026F3F2FEFCA
S1130CC0720789F40E94EF0062E080E191E00E94E3
S1130CD0D0008FE39DE023E0815090402040E1F775
S1130CE000C0000079C080E090E00E94590C26E921
S1130CF033E44BE05DE30E94E70C20E030E040E0A9
S1130D005FE30E94E70C9B01AC0160E070E088E4C3
S1130D1092E40E94440B0E94230C70933A02609365
S1130D20390220913102309132022617370711F02F
S1130D300E94EF000E94F30068E08BE391E00E94C0
S1130D40D0004AE0BE016F5F7F4F809139029091DD
S1130D503A020E94310F63E0CE0101960E94D00056
S1130D6062E08EE191E00E94D0008091390290917E
S1130D703A0290933202809331028BE49DE1019711
S1130D80F1F700C000008091390290913A028A3054
S1130D909105A4F40E94F7006FE083E491E00E94BF
S1130DA0D0009FE926E881E0915020408040E1F79F
S1130DB000C0000083E00E945F030EC00A9744F065
S1130DC00E94F70060E183E591E00E94D00004C036
S1130DD00E944D01809343020F900F900F900F904B
S1130DE0DF91CF910895CF92DF92EF92FF920F930C
S1130DF01F93CF93DF9300D000D01F92CDB7DEB7FF
S1130E008C016A0179018FEF84BB0E94EF000E947C
S1130E10F3000E9414030E9424030E942E03809373
S1130E2049020E942E03809344020E942E03809361
S1130E3048020E942E0380934C020E942E0380934A
S1130E404502E0914902F0E0909144029F01290F8C
S1130E50311D90914802290F311D90914C02290FA8
S1130E60311D482F50E02417350731F065E083E643
S1130E7091E00E94D00059C04AE0BE016F5F7F4FED
S1130E80CF010E94310F62E089E691E00E94D00018
S1130E9062E0CE0101960E94D00061E085EC90E012
S1130EA00E94D000809144024AE0BE016F5F7F4FF0
S1130EB090E00E94310F62E0CE0101960E94D000C2
S1130EC061E08CE691E00E94D000809148024AE003
S1130ED0BE016F5F7F4F90E00E94310F62E08EE6AB
S1130EE091E00E94D00062E0CE0101960E94D00001
S1130EF061E085EC90E00E94D00080914C024AE0D1
S1130F00BE016F5F7F4F90E00E94310F62E0CE011F
S1130F1001960E94D0008FED0E94BE0062E081E73E
S1130F2091E00E94D0000E94F7002FE986E891E04A
S1130F30215080409040E1F700C000002091480219
S1130F4080914C0290E0820F911DC816D9064CF096
S1130F5066E084E791E00E94D00087E40E945F038A
S1130F6003C086E40E945F032091480280914C02F2
S1130F7090E0820F911D8E159F054CF067E08BE782
S1130F8091E00E94D00084E00E945F0303C085E0EA
S1130F900E945F03209149028091440290E0820FF5
S1130FA0911D0817190794F067E083E891E00E9407
S1130FB0D0002FE38DE093E0215080409040E1F792
S1130FC000C000008DE30E945F0311C067E08AE85F
S1130FD091E00E94D0002FE38DE093E02150804007
S1130FE09040E1F700C000008CE30E945F032FE70C
S1130FF08AE196E0215080409040E1F700C0000073
S11310000F900F900F900F900F90DF91CF911F9141
S11310100F91FF90EF90DF90CF900895CF93DF93DF
S1131020E199FECF80E090E00E941912C82FD0E031
S1131030D0933402C093330281E090E00E941912ED
S113104090E09093300280932F02CF3FD10529F492
S113105060E080E090E00E94211280912F02909144
S113106030028F3F910529F460E081E090E00E9416
S11310702112DF91CF9108958F929F92AF92BF92E8
S1131080CF92DF92EF92FF920F931F93CF93DF9350
S113109000D000D01F92CDB7DEB780E00E94D0030D
S11310A083E00E94F10382E090E00E94191290E034
S11310B090933E0280933D0260913F0281E090E074
S11310C00E94211260913F027091400281E090E001
S11310D06115710511F080E090E020913D0230919E
S11310E03E028217930751F582E090E00E9421129C
S11310F06091490280916800909169000E942112D8
S113110080916800909169006091480249960E941C
S1131110211260913F0282E090E00E9421126091CE
S1131120680083E090E00E94211280916800909111
S113113069000196909369008093680083E090E0D1
S11311400E941912882E912C9092500280924F0284
S11311508FEF8816910491F58091490290E0909365
S11311602B0280932A028091480290E090932D02F2
S113117080932C022CC0C8010E941912E82EF12C75
S1131180C80149960E941912CE0CDF1CA80EB11C8E
S1131190980123503109C601B9010E94D90E7093F8
S11311A02B0260932A02C501B9010E94D90E7093E3
S11311B02D0260932C020F5F1F4F06C004E010E065
S11311C0A12CB12CC12CD12C08151905A4F60E9410
S11311D0EF000E94F30068E081E991E00E94D000F2
S11311E080912D028F9380912C028F930F2EFEEF0E
S11311F0EF2EF0E0FF2EF02DFF92EF928E010F5FA5
S11312001F4F1F930F930E94560F63E0C8010E9463
S1131210D0000E94F70068E08AE991E00E94D000C3
S113122080912B028F9380912A028F93FF92EF92E9
S11312301F930F930E94560F63E0C8010E94D000D1
S11312400FB6F894DEBF0FBECDBF0F900F900F9076
S11312500F900F90DF91CF911F910F91FF90EF901E
S1131260DF90CF90BF90AF909F908F90089507C06C
S1131270E9EFF0E03197F1F700C00000019718168C
S11312801906B4F308950F931F93CF93DF93CDB74B
S1131290DEB764970FB6F894DEBF0FBECDBF0E94D1
S11312A064030E94A20081B3816081BB80E00E943C
S11312B0D00380913F029091400286FF42C020916A
S11312C038022F93209137022F9320913C022F93C1
S11312D020913B022F938F7199279F938F9383EAD9
S11312E091E09F938F93CE0101969F938F930E94D9
S11312F0560F80913F020E94CA030FB6F894DEBFD6
S11313000FBECDBF882361F0FE013196019000200D
S1131310E9F7319780E59DE49183808312820BC0C5
S1131320FE01319601900020E9F7319781E49DE4B4
S113133091838083128262E0CE0101960E94D000E4
S113134066C0209138022F93209137022F93209169
S11313503C022F9320913B022F939F938F9383EA18
S113136091E09F938F938E010F5F1F4F1F930F93F5
S11313700E94560F0E94F30065E084EB91E00E9406
S1131380D00069E0C8010E94D00080913F02909192
S113139040020FB6F894DEBF0FBECDBF4197A9F54A
S11313A085B3806485BB0E94F70060E18AEB91E01D
S11313B00E94D00060916400709165008091660085
S11313C0909167000E94230CCB010E94370985B3DA
S11313D08F7385BB85B3806885BB0E94F7006CE082
S11313E089EC91E00E94D0006091600070916100EE
S11313F080916200909163000E94230CCB010E94B3
S1131400370985B38F7385BB02C00E94F7006496C9
S11314100FB6F894DEBF0FBECDBFDF91CF911F9101
S11314200F910895CF93DF9300D000D000D0CDB7B3
S1131430DEB78FEF8ABB97E097BB90EF91BB84BB7D
S11314400E94A2000E940E080E9450030E94EF0016
S11314500E94F3006AE085ED91E00E94D0000E94B2
S1131460F70060E180EE91E00E94D0002FE789EA66
S113147093E0215080409040E1F700C000000E94BA
S1131480EF000E94F3006AE081EF91E00E94D00037
S11314900E94F70060E18CEF91E00E94D0002FE7FA
S11314A089EA93E0215080409040E1F700C00000B9
S11314B01E821D820E94EF006FE08CE092E00E9489
S11314C0D0000E944D0190E0FC01F197E730F10556
S11314D088F7E65DFF4F0C94ED0E0E94EF006CE080
S11314E08BE192E00E94D0000E9441055C010E94C1
S11314F0B7044C010E94CE043C010E94E5049E8383
S11315008D830E94FC048C010E9413057C010E94BF
S11315102A056C01B401990C880B990B0E945B0C91
S113152020E030E048ED51E40E94B10B69837A83F6
S11315308B839C83B501BB0C880B990B0E945B0CBD
S11315404B015C019B01AC0169817A818B819C8197
S11315500E94E70C609364007093650080936600BA
S113156090936700B301770C880B990B0E945B0C76
S113157020E030E048ED51E40E94B10B9B01AC0146
S1131580C501B4010E94E70C609360007093610090
S113159080936200909363008DCF8D819E8100972C
S11315A031F09601A701B8010E94F3060AC02DE1AB
S11315B030E047E150E065E570E08BE490E00E94A4
S11315C0F3060E94A1059FE926E881E0915020409E
S11315D08040E1F700C000000E944A069FE32DE02E
S11315E083E0915020408040E1F700C000000E9459
S11315F043098FE493EC0197F1F700C000000E94C7
S11316003C089FE52AEE80E0915020408040E1F7BD
S113161000C00000C2CF8D819E81009731F09601F9
S1131620A701B8010E94F30645CF2DE130E047E160
S113163050E065E570E08BE490E00E94F3063ACF59
S11316400E94A1059FE926E881E091502040804056
S1131650E1F700C000002ECF0E944A069FE32DE070
S113166083E0915020408040E1F700C0000022CF89
S11316700E9443098FE493EC0197F1F700C0000046
S113168081E00E945F0316CF5058BB27AA270E940F
S11316905C0B0C94AD0C0E949F0C38F00E94A60CBD
S11316A020F039F49F3F19F426F40C949C0C0EF4AA
S11316B0E095E7FB0C94960CE92F0E94BE0C58F3BE
S11316C0BA17620773078407950720F079F4A6F523
S11316D00C94E00C0EF4E0950B2EBA2FA02D0B0108
S11316E0B90190010C01CA01A0011124FF27591B63
S11316F099F0593F50F4503E68F11A16F040A22F69
S1131700232F342F4427585FF3CF469537952795D9
S1131710A795F0405395C9F77EF41F16BA0B620BD8
S1131720730B840BBAF09150A1F0FF0FBB1F661F1F
S1131730771F881FC2F70EC0BA0F621F731F841F62
S113174048F4879577956795B795F7959E3F08F088
S1131750B0CF9395880F08F09927EE0F979587954A
S113176008950E94C50B0C94AD0C0E94A60C58F071
S11317700E949F0C40F029F45F3F29F00C94960CD2
S113178051110C94E10C0C949C0C0E94BE0C68F357
S11317909923B1F3552391F3951B550BBB27AA2726
S11317A062177307840738F09F5F5F4F220F331F60
S11317B0441FAA1FA9F335D00E2E3AF0E0E832D028
S11317C091505040E695001CCAF72BD0FE2F29D02B
S11317D0660F771F881FBB1F261737074807AB07FD
S11317E0B0E809F0BB0B802DBF01FF2793585F4F72
S11317F03AF09E3F510578F00C94960C0C94E10C51
S11318005F3FE4F3983ED4F3869577956795B79553
S1131810F7959F5FC9F7880F911D9695879597F95E
S11318200895E1E0660F771F881FBB1F62177307D7
S11318308407BA0720F0621B730B840BBA0BEE1FEC
S113184088F7E09508950E942A0C6894B1110C94CD
S1131850E10C08950E94C60C88F09F5798F0B92FA8
S11318609927B751B0F0E1F0660F771F881F991FD1
S11318701AF0BA95C9F714C0B13091F00E94E00C87
S1131880B1E008950C94E00C672F782F8827B85F97
S113189039F0B93FCCF3869577956795B395D9F729
S11318A03EF490958095709561957F4F8F4F9F4F33
S11318B00895E89409C097FB3EF49095809570953F
S11318C061957F4F8F4F9F4F9923A9F0F92F96E988
S11318D0BB279395F695879577956795B795F111FD
S11318E0F8CFFAF4BB0F11F460FF1BC06F5F7F4F9A
S11318F08F4F9F4F16C0882311F096E911C07723AC
S113190021F09EE8872F762F05C0662371F096E8B4
S1131910862F70E060E02AF09A95660F771F881F83
S1131920DAF7880F9695879597F9089597F99F6741
S113193080E870E060E008959FEF80EC0895002453
S11319400A941616170618060906089500240A9420
S113195012161306140605060895092E0394000CA6
S113196011F4882352F0BB0F40F4BF2B11F460FF35
S113197004C06F5F7F4F8F4F9F4F089557FD90585E
S1131980440F551F59F05F3F71F04795880F97FB3F
S1131990991F61F09F3F79F08795089512161306F9
S11319A01406551FF2CF4695F1DF08C01616170628
S11319B01806991FF1CF869571056105089408955D
S11319C0E894BB2766277727CB0197F908950E94EF
S11319D0FA0C0C94AD0C0E949F0C38F00E94A60CDB
S11319E020F0952311F00C94960C0C949C0C11246B
S11319F00C94E10C0E94BE0C70F3959FC1F3950FFB
S1131A0050E0551F629FF001729FBB27F00DB11D7E
S1131A10639FAA27F00DB11DAA1F649F6627B00D0E
S1131A20A11D661F829F2227B00DA11D621F739FF7
S1131A30B00DA11D621F839FA00D611D221F749F05
S1131A403327A00D611D231F849F600D211D822F4C
S1131A50762F6A2F11249F5750409AF0F1F0882373
S1131A604AF0EE0FFF1FBB1F661F771F881F9150A0
S1131A705040A9F79E3F510580F00C94960C0C94AD
S1131A80E10C5F3FE4F3983ED4F386957795679530
S1131A90B795F795E7959F5FC1F7FE2B880F911DCA
S1131AA09695879597F90895FA01EE0FFF1F3096E2
S1131AB021053105A1F16115710561F48038BFE399
S1131AC09B0749F168949038810561F08038BFEF35
S1131AD09B0741F099234AF5FF3FE10531052105B4
S1131AE019F1E8940894E795D901AA2329F4AB2FB6
S1131AF0BE2FF85FD0F310C0FF5F70F4A695E0F737
S1131B00F73950F019F0FF3A38F49F779F930DD0CE
S1131B100F9007FC9058089546F00C949C0C60E0DC
S1131B2070E080E89FE308954FE79F775F934F93BA
S1131B303F932F930E944F0E2F913F914F915F91AE
S1131B400E94E70C0C94AC0D29F416F00C94960C3E
S1131B500C94E00C0C949C0C0E94C60CA8F39638D0
S1131B60A0F707F80F92E8942BE33AEA48EB5FE713
S1131B700E94FD0C0F920F920F924DB75EB70F9219
S1131B800E94970EE2E6F0E00E94DE0D4F915F9115
S1131B90EF91FF91E595EE1FFF1F49F0FE57E068B6
S1131BA04427EE0F441FFA95E1F74195550B0E9427
S1131BB0110E0F9007FE0C94050E0895DF93CF933A
S1131BC01F930F93FF92EF92DF927B018C01689435
S1131BD006C0DA2EEF010E94FA0CFE01E894A591EA
S1131BE02591359145915591A6F3EF010E945C0B27
S1131BF0FE019701A801DA9469F7DF90EF90FF9056
S1131C000F911F91CF91DF9108959B01AC0160E08A
S1131C1070E080E89FE30C94B10B0C94960C0C9448
S1131C20CB0E0E94C60CD8F39923C9F3940F511D0F
S1131C30A3F39150504094F059F0882332F0660F8A
S1131C40771F881F91505040C1F79E3F51052CF7D4
S1131C50880F911D9695879597F908955F3FACF08D
S1131C60983E9CF0BB27869577956795B79508F4C1
S1131C70B1609395C1F7BB0F58F711F460FFE8CF3B
S1131C806F5F7F4F8F4F9F4FE3CF0C94E10C16F0A3
S1131C900C94CB0E0C949C0C68940C94960C0E949F
S1131CA0C60CA8F39923C1F3AEF3DF93CF931F932C
S1131CB00F93FF92C92FDD2788232AF02197660FFF
S1131CC0771F881FDAF720E030E040E85FEB9FE3FE
S1131CD0883920F0803E38F021968F770E94450B9A
S1131CE0EAE8F0E004C00E94450BE7EBF0E00E9454
S1131CF0DE0D8B01BE01EC01FB2E6F57710975954A
S1131D00771F880B990B0E945B0C28E132E741E3B3
S1131D105FE30E94FA0CAF2D9801AE01FF900F9182
S1131D201F91CF91DF910E945C0B0C94AD0CFA01D2
S1131D30DC01AA0FBB1F9B01AC01BF5728F422276B
S1131D4033274427507820C0B75190F4AB2F002498
S1131D50469537952795011CA395D2F3002071F081
S1131D60220F331F441FB395DAF30ED00C94440BA7
S1131D7061307105A0E88A07B94630F49B01AC01D3
S1131D806627772788279078309621F0208331833F
S1131D904283538308959F3F31F0915020F48795F7
S1131DA077956795B795880F911D9695879597F9BF
S1131DB0089597FB072E16F4009407D077FD09D0F9
S1131DC00E941D0F07FC05D03EF4909581959F4F0E
S1131DD00895709561957F4F0895EE0FFF1F05904C
S1131DE0F491E02D099497FB10F8169400080F93D2
S1131DF0083098F00850232F342F452F562F672F83
S1131E00782F892F902DF4CF059497958795779502
S1131E10679557954795379527950A95AAF70F9192
S1131E2008950024A7FD00942A0F301D401D501D65
S1131E30601D701D801D901D0895AA1BBB1B51E1E0
S1131E4007C0AA1FBB1FA617B70710F0A61BB70B26
S1131E50881F991F5A95A9F780959095BC01CD01CB
S1131E600895BB274A3031F4992322F4BDE29095BA
S1131E7081959F4F0C943D0FBB27FB015527AA2743
S1131E80880F991FAA1FA41710F0A41B8395505103
S1131E90B9F7A05DAA3308F0A95DA193009779F77B
S1131EA0B111B1931192CB010C946F11AEE0B0E07B
S1131EB0ECE5FFE00C943C120D891E8986E08C83CE
S1131EC01A8309838FEF9FE79E838D83AE01475E5C
S1131ED05F4F6F89788DCE0101960E94780FEF8154
S1131EE0F885E00FF11F10822E96E4E00C9458124E
S1131EF0ABE0B0E0EEE7FFE00C942E126C017B0146
S1131F008A01FC0117821682838181FFCCC1CE0134
S1131F1001963C01F6019381F70193FD859193FFAE
S1131F2081917F01882309F4BAC1853239F493FD84
S1131F30859193FF81917F01853229F4B60190E068
S1131F400E947F11E7CF912C212C312CFFE1F31556
S1131F50D8F08B3279F038F4803279F08332A1F4FE
S1131F60232D20611DC08D3261F0803369F4232D4F
S1131F70216016C0832D8260382EE32DE4603E2E4E
S1131F802AC0F32DF8601DC037FC2DC020ED280FAA
S1131F902A3040F08E32B9F436FC81C1232D2064FE
S1131FA0322E19C036FE06C08AE0989E200D1124F8
S1131FB0922E11C0EAE02E9E200D1124222EF32D24
S1131FC0F0623F2E08C08C3621F4832D8068382EB1
S1131FD002C0883641F4F70193FD859193FF819106
S1131FE07F018111B3CF982F9F7D9554933028F4AE
S1131FF00C5F1F4F9FE399830DC0833631F0833705
S113200071F0833509F059C021C0F80180818983BA
S11320100E5F1F4F88248394912C530113C0280111
S1132020F2E04F0E511CF801A080B18036FE03C0CF
S1132030692D70E002C06FEF7FEFC5010E9464114B
S11320404C018201F32DFF773F2E16C0280122E0B8
S1132050420E511CF801A080B18036FE03C0692DE8
S113206070E002C06FEF7FEFC5010E9459114C016F
S1132070F32DF0683F2E820133FC1BC0822D90E0CB
S113208088169906B0F4B60180E290E00E947F11B0
S11320902A94F4CFF50137FC859137FE81915F01D5
S11320A0B60190E00E947F1121102A9421E0821A47
S11320B091088114910471F7E8C0843611F08936CF
S11320C041F5F80137FE07C06081718182819381F7
S11320D00C5F1F4F08C060817181072E000C880BB4
S11320E0990B0E5F1F4FF32DFF763F2E97FF09C00C
S11320F090958095709561957F4F8F4F9F4FF068B5
S11321003F2E2AE030E0A3010E94BB11882E8618DE
S113211045C0853731F4232D2F7EB22E2AE030E0DE
S113212025C0932D997FB92E8F36C1F018F48835C8
S113213079F0B5C0803719F0883721F0B0C0E92FA5
S1132140E061BE2EB4FE0DC0FB2DF460BF2E09C0AD
S113215034FE0AC0292F2660B22E06C028E030E0E3
S113216005C020E130E002C020E132E0F801B7FE12
S113217007C060817181828193810C5F1F4F06C00B
S11321806081718180E090E00E5F1F4FA3010E9487
S1132190BB11882E8618FB2DFF773F2E36FE0DC00F
S11321A0232D2E7FA22E891458F434FE0BC032FC4A
S11321B009C0832D8E7EA82E05C0B82CA32C03C085
S11321C0B82C01C0B92CA4FE0FC0FE01E80DF11D0E
S11321D08081803321F49A2D997EA92E09C0A2FE14
S11321E006C0B394B39404C08A2D867809F0B394DE
S11321F0A3FC11C0A0FE06C0B21488F4280C922CD3
S11322009B180EC0B21460F4B60180E290E00E9404
S11322107F11B394F7CFB21418F42B1802C0982C82
S1132220212CA4FE10C0B60180E390E00E947F112F
S1132230A2FE17C0A1FC03C088E790E002C088E5B5
S113224090E0B6010CC08A2D867859F0A1FE02C038
S11322508BE201C080E2A7FC8DE2B60190E00E940F
S11322607F11891438F4B60180E390E00E947F1155
S11322709A94F7CF8A94F301E80DF11D8081B60199
S113228090E00E947F118110F5CF222009F442CE04
S1132290B60180E290E00E947F112A94F6CFF60105
S11322A08681978102C08FEF9FEF2B96E2E10C9419
S11322B04A12FC010590615070400110D8F78095D6
S11322C090958E0F9F1F0895FC01615070400190FE
S11322D00110D8F7809590958E0F9F1F0895DC010B
S11322E0FC01672F71917723E1F7329704C07C9149
S11322F06D9370836291AE17BF07C8F308950F936F
S11323001F93CF93DF93FB01238121FD03C08FEF44
S11323109FEF2CC022FF16C046815781248135814E
S11323204217530744F4A081B1819D012F5F3F4FB1
S1132330318320838C93268137812F5F3F4F3783EE
S1132340268314C08B01EC01FB010084F185E02D90
S11323500995892BE1F6D80116968D919C911797D2
S1132360019617969C938E931697CE01DF91CF9189
S11323701F910F910895FA01AA27283051F12031B5
S113238081F1E8946F936E7F6E5F7F4F8F4F9F4F05
S1132390AF4FB1E03ED0B4E03CD0670F781F891F47
S11323A09A1FA11D680F791F8A1F911DA11D6A0F15
S11323B0711D811D911DA11D20D009F468943F91C8
S11323C02AE0269F11243019305D3193DEF6CF01C7
S11323D00895462F4770405D4193B3E00FD0C9F78D
S11323E0F6CF462F4F70405D4A3318F0495D31FDFA
S11323F04052419302D0A9F7EACFB4E0A69597954D
S1132400879577956795BA95C9F700976105710522
S113241008959B01AC010A2E06945795479537956C
S11324202795BA95C9F7620F731F841F951FA01DC6
S11324300895E199FECF9FBB8EBBE09A99278DB397
S11324400895262FE199FECF9FBB8EBB2DBB0FB6FF
S1132450F894E29AE19A0FBE019608952F923F9262
S11324604F925F926F927F928F929F92AF92BF92A0
S1132470CF92DF92EF92FF920F931F93CF93DF934C
S1132480CDB7DEB7CA1BDB0B0FB6F894DEBF0FBEA9
S1132490CDBF09942A88398848885F846E847D84F6
S11324A08C849B84AA84B984C884DF80EE80FD80F8
S11324B00C811B81AA81B981CE0FD11D0FB6F8946E
S11124C0DEBF0FBECDBFED010895F894FFCF2F
S11324CE0080BB450080BB450400454E5445522058
S11324DE57415445522000414D4F554E54286D6C72
S11324EE293A00454E5445522046455254494C49CA
S11324FE5A455200454E5445522048554D4944497B
S113250E5459004D494E28255248293A004D4158F8
S113251E28255248293A00454E5445522054454DDB
S113252E50415241542E004D494E2843293A004DF4
S113253E41582843293A00454E544552204C4452A2
S113254E20414443004D494E3A00454E54455220D5
S113255E504C414E5400434F554E543A200025647E
S113256E00504C414E5420434F554E542049530075
S113257E4521005741544552204C56203D00636D71
S113258E005741544552204C4F5721212100454EAE
S113259E4F554748205741544552004E54204C56EF
S11325AE203D004E54204C4556454C204C4F57214F
S11325BE212100454E4F554748204E54204C455638
S11325CE454C004572726F7200483D002500543D23
S11325DE0043200048204F4E2020004641204F4EFD
S11325EE202000464F204F4E2000464F204F464697
S11325FE004176672054656D3A0041766720487530
S113260E6D3A00253032783A253032783A25303218
S113261E7820200054696D653A0057617465722004
S113262E4D6F746F72204F4E004E54204D6F746F69
S113263E72204F4E00454E544552203120544F00C7
S113264E436F6E6669677572652073797374656D11
S113265E00454E544552203220544F004163746954
S113266E766174652073797374656D00454E5445B7
S113267E5220434F4D4D414E443A00436F6E6669AE
S10D268E677572652053595300006C
S9030000FC
